:020000040000FA
:1000000080040020F100000011010000D500000074
:1000100000000000000000000000000000000000E0
:1000200000000000000000000000000015010000BA
:10003000000000000000000017010000190100008E
:100040001B0100001B0100001B0100001B01000040
:100050001B0100001B0100001B0100001B01000030
:100060001B010000390D00001B0100001B010000F6
:10007000910D00001B0100001B0100001B0100008E
:100080001B0100001B0100001B0100001B01000000
:100090001B0100001B0100001B0100001B010000F0
:1000A0001B0100001B0100001B0100001B010000E0
:1000B0001B0100001B0100001B0100001B010000D0
:1000C0000348854600F0A6F800480047111B0000D1
:1000D0008004002004207146084202D0EFF309801A
:1000E00001E0EFF308807146004A10479D070000C9
:1000F0000A480B4901600B4901600B4901600B4A3A
:100100000B491160002101600A4880470A480047F6
:10011000FEE7FEE7FEE7FEE7FEE7FEE70001005030
:100120005900000016000000880000002400005064
:10013000A55A0000C50B0000C100000030B50B46F9
:10014000014600202022012409E00D46D5409D42B1
:1001500005D31D469540491B254695404019154637
:10016000521E002DF1DC30BD70B50024254600285C
:1001700001DA01244042002901DA01254942FFF752
:10018000DDFFAC4200D04042002C00D0494270BD9F
:1001900003460B439B0703D009E008C9121F08C0A0
:1001A000042AFAD203E00B780370401C491C521E4B
:1001B000F9D27047F0B51FB40646002082B005465C
:1001C0004024019100901BE0019922460F463046E1
:1001D00000F042F8049A059B801A994110D310460A
:1001E0001946224600F028F8361A8F410197224618
:1001F00001200021009F00F01FF838184D410090A9
:100200002046641E0028DFDC019B00982946324608
:1002100007B0F0BD064C0125064E05E0E36807CCAB
:100220002B430C3C98471034B442F7D3FFF74CFFF4
:10023000242700004427000010B5202A04DB0146D3
:10024000203A9140002010BD914020239C1A034683
:10025000E3401943904010BD10B5202A04DB084646
:10026000203AD040002110BD0B46D340D04020247E
:10027000A21A91400843194610BD00001FB5094954
:100280001EC903946C460EC4810F8A0069468A58C1
:10029000054951184A68C306DB0E01209840024305
:1002A0004A601FBDE426000000020050F0B50700C0
:1002B0000C46564885B054490162554E016813D02A
:1002C000042211430160102000F034FA0120C00420
:1002D00002905048042503904F4850492018884206
:1002E0000DD8002004901CE001221143016010464B
:1002F00000F020FA0020022503960290ECE748481F
:1003000048492018884203D801206400049008E07E
:100310004548454920184942884249D80320A4004D
:1003200004900026F64300200090019021E0294629
:100330000398FFF703FF3D493D4A4118914217D208
:100340000222354B014651435B1CCF185B429F4252
:100350000AD8A14201D90B1B00E0631AB34203D2B1
:100360001E000095019203D03249521C8A42E8D9FE
:100370006D1C212DDBD90498029980030843009954
:10038000012249029202891A08430199891E0843F1
:100390001E490862042000F0CDF904990098491C18
:1003A00041430398FFF7CAFE0199484305B0F0BDE9
:1003B000002F0FD0204915480162042000F0BAF93F
:1003C0001EA0006800901148016A0013014203D08A
:1003D0000020EBE71A49EEE7080300D50D4E88032D
:1003E00001D53046E2E70804800F6A46105CCA0572
:1003F0008904C90E891CD20D4143B008921C504398
:10040000FFF79CFE8000D1E70000010000020050D1
:10041000001BB70000805101FF1E0AFAFFE0F5053E
:100420007F0F05FD7FF0FA02C08782FEFF95E7FF90
:10043000BF77CC00010200006FD608000102020461
:100440002EC2000002490A6802430A607047000099
:100450000002005010B500F06DFB0148006810BDAF
:100460000000002010B500F065FB0148006810BDD9
:100470000000002002480068C00700D00148704713
:1004800000020050001BB70004480068800702D536
:100490000120C00370470020704700000002005098
:1004A00010B500F047FB0148006810BD00000020B7
:1004B00008B511A0006800901048016A00130142BD
:1004C00001D0002008BD080301D50D4800E00D480B
:1004D0008A03F7D40A04920F6B469B5CCA05890411
:1004E000D20DC90E891C8008921C59435043FFF756
:1004F00025FE800008BD0000010202040002005039
:1005000000805101001BB70008B511A000680090E1
:100510001048016A0013014201D0002008BD080301
:1005200001D50D4800E00D488A03F7D40A04920F64
:100530006B469B5CCA058904D20DC90E891C8008D4
:10054000921C59435043FFF7F9FD800008BD00009D
:10055000010202040002005000805101001BB7009C
:10056000F8B52E49CC6810222D4B1440984201D981
:10057000184603E02B4A904200D210462A4A012531
:10058000904201D9502600E00026284A926950275F
:100590003A43264FBA610A6804273A430A60CA6898
:1005A000D206FCD51D490A6907273A430A610A6A3F
:1005B000CF013A430A62C968C9070ED0984206D1F2
:1005C00041000020FFF772FE074602250FE00146BA
:1005D0000020FFF76BFE074609E001460120C0043A
:1005E000FFF764FE07460D48C468102004400F481A
:1005F00081695022914331438161691E022000F0DC
:1006000017F8002C04D10548026804218A430260CF
:1006100029463846FFF792FDF8BD00000002005061
:1006200000A24A0440787D0180F0FA0200C0005028
:1006300070B5104CE56810262268354004231A4333
:100640002260E268D206FCD5226907231A432261A0
:10065000A269120912010A43A26121699943014367
:10066000216100F067FA002D02D12068B0432060BC
:1006700070BD000000020050F0B5294B86B01C464A
:100680000834F0CC009401ACE0C418CB0493430EC2
:1006900005945B072DD083009B0F9B006C46E358AD
:1006A000204C1B190401650FC401E40EA5401C6811
:1006B000AC430C431C601B4B1B4C103BA04203D1B2
:1006C000DD69FF24013410E0184CA04207D1DC6939
:1006D00001256D02AC4329400C43DC6109E0144C58
:1006E000A04206D1DD690124A402A54321400D43A7
:1006F000DD61830A1906090E0FD00103890F8900F5
:1007000004AC6158074C800508340919DBB2C00EEF
:100710008340086898431043086006B0F0BD0000AD
:10072000CC260000100200501400C0571500E057FE
:100730001600406610B504460749084B05E00A4616
:10074000491E002A01DC002010BDDA6820469043D3
:10075000F5D1012010BD0000804F120000020050B2
:1007600010B501221021024800F004F810BD00006D
:1007700040400050F0B5002301273C469C400C420D
:1007800008D005685C000326A640B5431646A6407F
:10079000354305605B1C102BEFD3F0BD044603A06E
:1007A00000F002FC204601F09FFAFEE7496E204867
:1007B000617264204661756C742048616E646C657A
:1007C000720A000010B583680D24A34311430B4344
:1007D00008210B43836010BDF8B5069E0D46044604
:1007E000202B00D10023D800284310432060E06B69
:1007F0000121C9070843E063FFF734FE00223D49A9
:100800000746002D08D01020A0608C426AD13A49DA
:100810004B6903434B616AE00020A0603548844285
:100820003548406901D1C00600E08006002801DAA1
:100830003D4602E0FFF768FE0546BE420FD32D4855
:1008400084422D4804D1426910210A43426103E0E9
:1008500041692022114341610020606048E0AE42BE
:1008600003D3002060602846F8BD002E28D00A205F
:100870002F46474331463846FFF760FC0A21401DAA
:10088000FFF75CFC401EFF2824D9E06B40004008C5
:10089000E06371003846FFF751FC0A21401DFFF765
:1008A0004DFC401EFF2800D9FF206168090A09029B
:1008B0000143616041002846891CFFF73FFCF8BDF9
:1008C000E06B40004008E0636068FF21084360601F
:1008D000680AF8BD6168090A090201436160411CA8
:1008E0002846EAE7044841692023194341616260D0
:1008F0003846F8BD000003400002005070B5592092
:100900001621304C882202E020602160226023689A
:10091000012BF9D10420FFF795FD1020FFF70AFF06
:100920000120FFF78FFD0120FFF704FF2648FFF7A6
:1009300017FE00210720FFF77BFE244D2846FFF716
:100940009DFC0321002209062846FFF795FE204D55
:100950002846FFF793FC0121002249022846FFF7B1
:100960008BFE1C4D2846FFF789FC0121002249031C
:100970002846FFF781FE184D002210212846FFF778
:100980007BFE2846FFF77AFC05200007416B8908AB
:1009900089004163416B032211434163816B090963
:1009A00009018163816B0F22114381630548C038BF
:1009B000016901610169016100F0BCF8002020605B
:1009C00070BD00000001005000A24A04103D805795
:1009D0000200805E0300C05E0C0040520521020E42
:1009E000090751188B680122824013438B60886885
:1009F000904388607047000006498A691202FCD45F
:100A000008600A2804D188690002FCD40D2008601F
:100A100070470000000005407FB544490878421C3B
:100A20000A70352801D3012008704048404D4089A4
:100A3000097842008418601907294CD007DC0B00A4
:100A400000F0C2FA071123282D34393D1100322954
:100A50005DD009DC082945D009294CD0312902D1C3
:100A60000A2000F079FD7FBD332958D03429FAD10E
:100A7000817843782A5D6E460EC6039110214801A5
:100A800000F02AFE01F0D2F87FBD322000F096FF80
:100A9000302039E00A21022000F0ACFF7FBD8378CE
:100AA0004278295D1E2000F0CEFFEBE7012000F028
:100AB000F7FFF02028E03C2000F03AFF7FBD81786E
:100AC00043782A5D6E460EC603917D208021400248
:100AD00000F064FDD6E783784278295D1E2000F09F
:100AE00033FECFE78178009143782A5D0A213220D6
:100AF00000F0F1FEC6E73C2000F0C4FD00221146E4
:100B0000104601F0AFF8782000F016FD7FBD837825
:100B10004278E120295D800000F044FEB2E783784E
:100B20004278295D1E2000F090FDABE72C000020EC
:100B3000901D000038B51DA000681D4C0090216A72
:100B40002013014201D0002016E0080301D5194806
:100B500000E019488A030FD40A04920F6B469B5C8D
:100B6000CA058904D20DC90E891C8008921C5943FC
:100B70005043FFF7E3FA8000104DA8602169490750
:100B8000490F022903D0880029460C310858A16971
:100B90000907090F491CFFF7D1FA094928604A10D3
:100BA0008018FFF7CBFA686038BD0000010202042C
:100BB0000002005000805101001BB700000000201F
:100BC00040420F007047000010B50A4C7D22012101
:100BD000D200C906204600F08FF82068210608439D
:100BE00020600815044908602068890508432060D2
:100BF00010BD00002000014000E100E0F8B50C4607
:100C0000064600F045F8014600901E48002700689F
:100C1000FFF794FA451C0020306070611A49009873
:100C2000884205D87D20C000844205D2044606E0F3
:100C3000642C01D2642402E08C4200D90C46009856
:100C4000884208D801461148FFF778FA01467D200E
:100C5000C000604305E0FFF771FA6043070E02D061
:100C6000791CFFF76BFA706001208007074337603B
:100C7000002D02D000BF6D1EFCD130688001FCD475
:100C8000F8BD00000000002040420F0000CA9A3B5F
:100C900010B588B00446202212496846FFF778FA5A
:100CA000114912488C4202D14069000A0DE00E49F8
:100CB00020318C4202D14069000B06E00C494069AA
:100CC0008C4201D1000C00E0000D4007400F0228CB
:100CD00004D080006946085808B010BD0548006877
:100CE000FAE7000004270000000001400002005065
:100CF0000000114000000020F7B517460646FFF738
:100D0000C7FF054600244008B84201D2022008E08F
:100D100039462846FFF712FA040E02D0611CFFF78D
:100D20000DFA0199214331607060641C60430146F3
:100D30002846FFF703FAFEBD10B50E498868C007C4
:100D4000C00F16D001228A600B498889431C8B8111
:100D50007D23DB0098420CD300208881074803697B
:100D6000534003610A69501C0861054905A000F061
:100D70001BF910BD200001402C0000204042005013
:100D80008A2600002573203A202532640D0A0000CF
:100D900010B50E4CE06911210902084202D104E0AD
:100DA00000F08EF8A1694904FAD5E069810404D500
:100DB00001214903204600F00BF8E169204649056E
:100DC00003D50121890200F003F810BD00000540A1
:100DD0004A0503D570228261082282610A0503D583
:100DE000426901231A4342618A0401D5044A82619F
:100DF000090403D58021C161024981637047000065
:100E0000010000010F03000042680A434260074BE3
:100E1000012212030649984201D10A607047054B2E
:100E20009842FAD101204003086070470000054055
:100E300000E100E000001540F0B504461C480D46F6
:100E40000FC885B06E460FC61A48416980698A018D
:100E50000321960F0005070F00202063E160A068C2
:100E600015490840A060012E02D1FFF721FB019037
:100E7000002D1BD0B10068464058791CFFF75EF981
:100E80000646690840182946FFF758F90B49801EA5
:100E9000884207D9E90070182946FFF74FF9000981
:100EA000801E02E0032109070843606205B0F0BD1F
:100EB0009C260000000200500FFFF0FFFFFF000023
:100EC00010B50E480068C0B2782807D0582805D061
:100ED0007F280BD90AA000F067F810BDBFF34F8F31
:100EE0000D490C48C860BFF34F8FFEE73038C1B2E0
:100EF0000A4801700AA000F057F810BD0000054034
:100F0000696E76616C696420636F6D6D616E640DEE
:100F10000A0000000400FA0500ED00E02C000020AB
:100F200044656D6F5374617465203D202532640DF6
:100F30000A0000000348C021016201680122114338
:100F400001607047000003400348FC210162016812
:100F500001221143016070470000034038B5074883
:100F6000074C00900823042200212046FFF734FCA0
:100F7000002201212046FFF725FC38BDC0CF6A00C2
:100F80000000034010B504460023200602D5FFF7F9
:100F9000DBFF01E0FFF7CEFF60065B1C040EDBB257
:100FA000082BF2D310BD00000FB410B503A9044BF9
:100FB000044A029800F024F810BC08BC04B018479A
:100FC0004D1500004000002030B47446641E2578A2
:100FD000641CAB4200D21D46635D5B00E31830BC6D
:100FE000184702E008C8121F08C1002AFAD170474A
:100FF0007047002001E001C1121F002AFBD1704799
:10100000FFB591B00F460546002606E025280AD018
:10101000149A139990476D1C761C28780028F5D1F6
:10102000304615B0F0BD002400940121F34A02942B
:1010300000E004436D1C2B780846203B984010428A
:10104000F7D128782A280ED0022128780246303A93
:10105000092A15D8009A0A235A43303A80180C43BB
:101060006D1C0090F1E701CF0090002805DA012007
:1010700040030443009840420090022004436D1C4A
:1010800028782E2815D10420044368786D1C2A285E
:101090000AD101CF6D1C02900BE002990A22514344
:1010A000303940186D1C02902878014630390929E2
:1010B000F3D928786C2810D006DC4C281AD0682880
:1010C0000ED06A2817D104E0742813D07A2812D1E0
:1010D00010E00120400504430CE00121090501E076
:1010E000032109050C436978814203D101200005E1
:1010F00024186D1C6D1C287803906E281ED00CDC03
:10110000632831D004DC00288AD0582811D1B2E0FD
:1011100064287BD069280CD178E073282DD004DCBA
:101120006F2870D0702804D1A7E075286CD078287B
:101130006BD0149A13999047761C62E06002400FBE
:10114000022807D003280AD0042838680AD006608D
:101150003F1D56E03868F11706604160F8E73868CF
:101160000680F5E70670F3E73878694608740020D2
:10117000487404A80390012003E03868039000201D
:10118000C0433F1D61070FD5002101E00199491CB3
:10119000029A0191914213DA8142F7DB019A039995
:1011A000895C0029F2D10BE0002101E00199491C82
:1011B00001918142FADB019A0399895C0029F5D1FA
:1011C00001990098139A401A00902146149B00F050
:1011D0003BF901998019461807E0039803990078B4
:1011E000491C0391149A139990470198401E01904D
:1011F000401CF2D12146149B139A009800F014F978
:1012000086196D1C09E741E033E034E00A20002133
:10121000049005916002410F022905D001CFC21749
:101220009446032905D007E0FF1DFF08FF0003CF08
:1012300006E000B2C2179446042902D140B2C11799
:101240008C4600226146944506DA0A460021404257
:1012500091418C462D2102E0210504D52B216A46BF
:101260001176012103E0E10701D02021F7E7019188
:1012700054E00A200BE0102009E010200490002127
:101280000420044308200591029003E00820002177
:10129000059104906002410F022905D001CF002280
:1012A0009446032906D006E0FF1DFF08FF0003CF88
:1012B0008C4603E080B2042900D1C0B20021019124
:1012C00021072BD50399702906D0049A1021059B7C
:1012D0004A401A4305D00EE040216A4611760121AA
:1012E00008E06146014306D030216A461176039931
:1012F000517602210191049A0821059B4A401A4324
:101300000CD16146014301D1610707D530216A46FE
:101310001176012101910299491E029103995829E0
:1013200004D037A103910FA90F910DE039A1F9E77E
:101330006146059B049AFEF73DFF039B8C469B5C30
:101340000F9A521E0F92137061460143F0D10F980D
:1013500007A9081A20300390600704D50120000473
:101360008443029801E0012002900399884201DD44
:10137000401A00E0002041180290019809180098D6
:10138000401A0090E00306D42146149B139A00985B
:1013900000F05AF886190020049008E006A9085CBD
:1013A000149A139990470498401C761C0490019954
:1013B0008842F3DBE0030CD52146149B139A009876
:1013C00000F042F8861904E0149A302013999047EF
:1013D000761C0299481E02900029F5DC08E00F985F
:1013E0000F990078491C0F91149A13999047761C15
:1013F0000399481E03900029F1DCFBE6092801004F
:10140000303132333435363738396162636465667A
:10141000000000003031323334353637383941423C
:101420004344454600000000F8B5044600251E462A
:101430001746880404D405E039462020B0476D1CC7
:10144000641EF9D52846F8BDFFB50446002581B0D5
:101450001E46C80301D5302700E02027880404D5A4
:1014600005E038460399B0476D1C641EF9D528463F
:1014700005B0F0BDF7B51F4A13465779DE789D7861
:101480001C793B00FFF7A0FD06040B121920272D45
:10149000761CF3B2D370FF2B23D1012320E06D1E05
:1014A0002B061B0E93701CD1022319E0641CE3B2BF
:1014B0001371FF2B15D1032312E0761E33061B0E8A
:1014C000D3700ED104230BE06D1CEBB29370FF2B95
:1014D00007D1052304E0641E23061B0E137100D1FF
:1014E0005371D3780B709178017002981179017063
:1014F000FEBD00002C00002070B5FF24201A00253E
:10150000552805D2157042008018221A0A7007E08B
:10151000AA2807D255384600801910700D70201A7D
:10152000187006E0AA3846008019241A1470087052
:101530001D70002070BD00007D21C90010B5414321
:101540000148FFF75BFB10BD0000014000B50346FA
:10155000FFF752FA184600BDF1B5002568002F18B4
:101560000C4800243E180B48B378C15D72782046C1
:1015700000F050FB641CE4B2122CF4D3362000F0CF
:1015800085FB0098FFF7D8FF6D1C0348ADB285427C
:10159000E4D3F8BD901D0000FE020000FFB583B04B
:1015A0000D9817461E460024C01B0E9D0499FEF799
:1015B000DBFD0190A81B0499FEF7D6FD00900C9965
:1015C0000F98401A0499FEF7CFFD054619E0204612
:1015D0000C9968434018C2B2009860438019C1B2A8
:1015E00001986043C019C0B200F03CFB0499039815
:1015F000FEF7A4FD0146401E80B20029FAD1641C0A
:10160000A4B204988442E2D3401E84B219E020467A
:101610000C9968434018C2B2009860438019C1B267
:1016200001986043C019C0B200F01CFB04990398F4
:10163000FEF784FD0146401E80B20029FAD1641EE7
:10164000A4B2002CE3D107B0F0BDFFB581B01D46B8
:1016500016460F46002400221146104600F002FBF9
:101660002B4632463946204600F0D4FA362000F0A8
:101670000DFB0198FFF760FF641CE4B2122CEAD363
:1016800005B0F0BDF1B50025114E124F2C462A20B1
:10169000604340193146FEF751FDC8B24100401881
:1016A000C1198B784A78395C204600F0B3FA3620AD
:1016B00000F0ECFA0098FFF73FFF2A35A8B2314658
:1016C000FEF73CFD641CE4B20D46122CDFD3F8BDDE
:1016D000FE020000901D0000FFB583B00D98174674
:1016E0001E460024C01B0E9D0499FEF73DFD01908F
:1016F000A81B0499FEF738FD00900C990F98401A2A
:101700000499FEF731FD054619E020460C9968431F
:101710004018C2B2009860438019C1B2019860437A
:10172000C019C0B200F09EFA04990398FEF706FDB6
:101730000146401E80B20029FAD1641CA4B204986C
:101740008442E2D307B0F0BDFFB5002416460F4631
:1017500081B01D4622462146204600F083FA2B46E2
:1017600032463946204600F055FA362000F08EFA0F
:101770000198FFF7E1FE641CE4B2122CEFD30024C1
:1017800000231A461946204600F044FA362000F09D
:101790007DFA0198FFF7D0FE641CE4B2122CEFD35F
:1017A00005B0F0BDFFB585B02320CF090090F8014A
:1017B000D609C01BC0B20390F001801BC0B2DD0986
:1017C0000290E801401BC0B20022019000241146A3
:1017D000104600F047FA009801460F310598FEF7D1
:1017E000ADFC049020466843C2B220467043C1B2AB
:1017F00020467843C0B200F035FA04980146401EF6
:1018000080B20029FAD1641CE4B2802CEAD300999A
:1018100000240A310598FEF791FC049020460199B6
:101820006843081AC2B2204602997043081AC1B22E
:101830002046039B7843181AC0B200F013FA0498AC
:101840000146401E80B20029FAD1641CE4B2802C0B
:10185000E4D300990024491D0598FEF76FFC04901D
:1018600020466843C2B220467043C1B22046784346
:10187000C0B200F0F7F904980146401E80B200297A
:10188000FAD1641CE4B2802CEAD3002400990598B4
:10189000FEF754FC0090204601996843081AC2B232
:1018A000204602997043081AC1B22046039B784330
:1018B000181AC0B200F0D6F900980146401E80B256
:1018C0000029FAD1641CE4B2802CE4D30598FFF718
:1018D00033FE09B0F0BDFFB581B00F4600251220E0
:1018E000FEF72CFC002206461146104600F0BAF91D
:1018F00000221146104600F0B5F900240AE0204607
:1019000070434019C0B20A9B049A039900F082F90F
:10191000641CA4B2BC42F2D3362000F0B7F901989F
:10192000FFF70AFE6D1CEDB2122DE1D305B0F0BD3C
:10193000F1B521490024CA7908468079002A06D0E9
:10194000401CC0B28871FF2808D1002005E0401E6D
:101950000006000E887101D10120C8710321A01C6E
:10196000FEF7ECFB1448C9078579C90F6943CFB26C
:101970000321601CFEF7E2FBC807C00F6843C6B234
:1019800003212046FEF7DAFBC807C00F6843C1B247
:101990003B463246204600F03DF9362000F076F90D
:1019A00000980146401E80B20029FAD1641CE4B2BE
:1019B000122CD3D3F8BD00002C0000203EB500242B
:1019C000694605460C706A4601A902A8FFF752FD58
:1019D000684603780279017A204600F01BF9641CFE
:1019E000E4B2122CEFD3362000F050F92846FFF76E
:1019F000A3FD3EBDFEB500256A460F4615700602E2
:101A00001EE0002420021221FEF798FB4019C0B20C
:101A10006B4601AA02A9FFF76FFD69460B780A79A8
:101A2000E0B2097A00F0F6F8641CA4B2122CE9D3F3
:101A3000362000F02BF93846FFF77EFD6D1CADB265
:101A4000AE42DED8FEBDFFB581B01F4600260024A1
:101A500000252819C0B23B46039A029900F0DAF833
:101A6000ED1CADB2122DF4D3362000F00FF9019821
:101A7000FFF762FD002500232819C0B21A46194657
:101A800000F0C8F8ED1CADB2122DF4D3641CA4B262
:101A9000032CDDD3761CB6B20A2ED8D305B0F0BD28
:101AA000FEB50026694607460E7000250024A019E1
:101AB000FF21FEF743FB08466B4601AA02A9FFF788
:101AC0001BFD694660190B780A79C0B2097A00F0EB
:101AD000A1F8E41CA4B2122CE9D3362000F0D6F809
:101AE0003846FFF729FD002400236019C0B21A46CA
:101AF000194600F08FF8E41CA4B2122CF4D36D1C2C
:101B0000EDB2032DD2D3761CB6B2FF2ECDD9FEBDD9
:101B1000FEF7F4FE1B48FEF761FF1B4CE121490272
:101B20002046FFF789F911212046FFF76DF90120C2
:101B3000164900030860FEF78DFC014614A0FFF76C
:101B400033FAFEF797FC014618A0FFF72DFAFEF7CF
:101B50009BFC01461BA0FFF727FAFEF783FC01461A
:101B60001EA0FFF721FAFEF79BFC014622A0FFF71B
:101B70001BFAFEF7F5FDFFF727F8FFF7EFF9FEF781
:101B80004BFFFCE7100000040000054000E100E00E
:101B90000D0A434C4B5F476574435055467265715F
:101BA000203A202538640D0A00000000434C4B5FAA
:101BB00047657448585446726571203A2025386448
:101BC0000D0A0000434C4B5F4765744C58544672F5
:101BD0006571203A202538640D0A0000434C4B5FA4
:101BE00047657450434C4B3046726571203A20254E
:101BF00038640D0A00000000434C4B5F4765745089
:101C0000434C4B3146726571203A202538640D0AE9
:101C10000000000010B544000019034C22540019C4
:101C20004170837010BD0000440000200B49002269
:101C30004B7808464089002B07D0094B984202D3C5
:101C40004A704B817047401C02E0002802D0401EC1
:101C500048817047012048704A8170472C0000205D
:101C6000FD020000F0B515460E46074600242B463F
:101C7000324639462046FFF7CDFF641CE4B2122CF1
:101C8000F5D3362000F002F8F0BD000070B5002456
:101C9000204600F017F80A4E60002518705DFFF727
:101CA00071F9AD196878FFF76DF9A878FFF76AF94F
:101CB000641CA4B2122CEFD3012000F003F870BD15
:101CC00044000020002807D07D2000010146401E6E
:101CD00080B20029FAD17047FF2091300146401EA2
:101CE00080B20029FAD1704710B50446016810A0EF
:101CF000FFF75AF911A06168FFF756F912A0A16821
:101D0000FFF752F913A0E168FFF74EF914A021691B
:101D1000FFF74AF915A06169FFF746F916A0A16916
:101D2000FFF742F917A0E169FFF73EF910BD000087
:101D3000723020203D20307825780A007231202032
:101D40003D20307825780A00723220203D203078FE
:101D500025780A00723320203D20307825780A004B
:101D6000723132203D20307825780A006C722020B4
:101D70003D20307825780A00706320203D2030789F
:101D800025780A00707372203D20307825780A008B
:101D9000FF0000FE0100FD0200FC0300FB0400FA4E
:101DA0000500F90600F80700F70800F60900F50A33
:101DB00000F40B00F30C00F20D00F10E00F00F0028
:101DC000EF1000EE1100ED1200EC1300EB1400EA2E
:101DD0001500E91600E81700E71800E61900E51AF3
:101DE00000E41B00E31C00E21D00E11E00E01F00F8
:101DF000DF2000DE2100DD2200DC2300DB2400DA0E
:101E00002500D92600D82700D72800D62900D52AB2
:101E100000D42B00D32C00D22D00D12E00D02F00C7
:101E2000CF3000CE3100CD3200CC3300CB3400CAED
:101E30003500C93600C83700C73800C63900C53A72
:101E400000C43B00C33C00C23D00C13E00C03F0097
:101E5000BF4000BE4100BD4200BC4300BB4400BACD
:101E60004500B94600B84700B74800B64900B54A32
:101E700000B44B00B34C00B24D00B14E00B04F0067
:101E8000AF5000AE5100AD5200AC5300AB5400AAAD
:101E90005500A95600A85700A75800A65900A55AF2
:101EA00000A45B00A35C00A25D00A15E00A05F0037
:101EB0009F60009E61009D62009C63009B64009A8D
:101EC0006500996600986700976800966900956AB2
:101ED00000946B00936C00926D00916E00906F0007
:101EE0008F70008E71008D72008C73008B74008A6D
:101EF0007500897600887700877800867900857A72
:101F000000847B00837C00827D00817E00807F00D6
:101F10007F80007E81007D82007C83007B84007A4C
:101F20008500798600788700778800768900758A31
:101F300000748B00738C00728D00718E00708F00A6
:101F40006F90006E91006D92006C93006B94006A2C
:101F50009500699600689700679800669900659AF1
:101F600000649B00639C00629D00619E00609F0076
:101F70005FA0005EA1005DA2005CA3005BA4005A0C
:101F8000A50059A60058A70057A80056A90055AAB1
:101F90000054AB0053AC0052AD0051AE0050AF0046
:101FA0004FB0004EB1004DB2004CB3004BB4004AEC
:101FB000B50049B60048B70047B80046B90045BA71
:101FC0000044BB0043BC0042BD0041BE0040BF0016
:101FD0003FC0003EC1003DC2003CC3003BC4003ACC
:101FE000C50039C60038C70037C80036C90035CA31
:101FF0000034CB0033CC0032CD0031CE0030CF00E6
:102000002FD0002ED1002DD2002CD3002BD4002AAB
:10201000D50029D60028D70027D80026D90025DAF0
:102020000024DB0023DC0022DD0021DE0020DF00B5
:102030001FE0001EE1001DE2001CE3001BE4001A8B
:10204000E50019E60018E70017E80016E90015EAB0
:102050000014EB0013EC0012ED0011EE0010EF0085
:102060000FF0000EF1000DF2000CF3000BF4000A6B
:10207000F50009F60008F70007F80006F90005FA70
:102080000004FB0003FC0002FD0001FE0000FF0055
:1020900000FE0100FD0200FC0300FB0400FA050045
:1020A000F90600F80700F70800F60900F50A00F441
:1020B0000B00F30C00F20D00F10E00F00F00EF101A
:1020C00000EE1100ED1200EC1300EB1400EA150015
:1020D000E91600E81700E71800E61900E51A00E421
:1020E0001B00E31C00E21D00E11E00E01F00DF20DA
:1020F00000DE2100DD2200DC2300DB2400DA2500E5
:10210000D92600D82700D72800D62900D52A00D400
:102110002B00D32C00D22D00D12E00D02F00CF3099
:1021200000CE3100CD3200CC3300CB3400CA3500B4
:10213000C93600C83700C73800C63900C53A00C4E0
:102140003B00C33C00C23D00C13E00C03F00BF4059
:1021500000BE4100BD4200BC4300BB4400BA450084
:10216000B94600B84700B74800B64900B54A00B4C0
:102170004B00B34C00B24D00B14E00B04F00AF5019
:1021800000AE5100AD5200AC5300AB5400AA550054
:10219000A95600A85700A75800A65900A55A00A4A0
:1021A0005B00A35C00A25D00A15E00A05F009F60D9
:1021B000009E61009D62009C63009B64009A650024
:1021C000996600986700976800966900956A009480
:1021D0006B00936C00926D00916E00906F008F7099
:1021E000008E71008D72008C73008B74008A7500F4
:1021F000897600887700877800867900857A008460
:102200007B00837C00827D00817E00807F007F8058
:10221000007E81007D82007C83007B84007A8500C3
:10222000798600788700778800768900758A00743F
:102230008B00738C00728D00718E00708F006F9018
:10224000006E91006D92006C93006B94006A950093
:10225000699600689700679800669900659A00641F
:102260009B00639C00629D00619E00609F005FA0D8
:10227000005EA1005DA2005CA3005BA4005AA50063
:1022800059A60058A70057A80056A90055AA0054FF
:10229000AB0053AC0052AD0051AE0050AF004FB098
:1022A000004EB1004DB2004CB3004BB4004AB50033
:1022B00049B60048B70047B80046B90045BA0044DF
:1022C000BB0043BC0042BD0041BE0040BF003FC058
:1022D000003EC1003DC2003CC3003BC4003AC50003
:1022E00039C60038C70037C80036C90035CA0034BF
:1022F000CB0033CC0032CD0031CE0030CF002FD018
:10230000002ED1002DD2002CD3002BD4002AD500D2
:1023100029D60028D70027D80026D90025DA00249E
:10232000DB0023DC0022DD0021DE0020DF001FE0D7
:10233000001EE1001DE2001CE3001BE4001AE500A2
:1023400019E60018E70017E80016E90015EA00147E
:10235000EB0013EC0012ED0011EE0010EF000FF097
:10236000000EF1000DF2000CF3000BF4000AF50072
:1023700009F60008F70007F80006F90005FA00045E
:10238000FB0003FC0002FD0001FE0000FF0100FE57
:102390000200FD0300FC0400FB0500FA0600F9073B
:1023A00000F80800F70900F60A00F50B00F40C002D
:1023B000F30D00F20E00F10F00F01000EF1100EE2F
:1023C0001200ED1300EC1400EB1500EA1600E917FB
:1023D00000E81800E71900E61A00E51B00E41C00FD
:1023E000E31D00E21E00E11F00E02000DF2100DE0F
:1023F0002200DD2300DC2400DB2500DA2600D927BB
:1024000000D82800D72900D62A00D52B00D42C00CC
:10241000D32D00D22E00D12F00D03000CF3100CEEE
:102420003200CD3300CC3400CB3500CA3600C9377A
:1024300000C83800C73900C63A00C53B00C43C009C
:10244000C33D00C23E00C13F00C04000BF4100BECE
:102450004200BD4300BC4400BB4500BA4600B9473A
:1024600000B84800B74900B64A00B54B00B44C006C
:10247000B34D00B24E00B14F00B05000AF5100AEAE
:102480005200AD5300AC5400AB5500AA5600A957FA
:1024900000A85800A75900A65A00A55B00A45C003C
:1024A000A35D00A25E00A15F00A060009F61009E8E
:1024B00062009D63009C64009B65009A66009967BA
:1024C00000986800976900966A00956B00946C000C
:1024D000936D00926E00916F009070008F71008E6E
:1024E00072008D73008C74008B75008A760089777A
:1024F00000887800877900867A00857B00847C00DC
:10250000837D00827E00817F008080007F81007E4D
:1025100082007D83007C84007B85007A8600798739
:1025200000788800778900768A00758B00748C00AB
:10253000738D00728E00718F007090006F91006E2D
:1025400092006D93006C94006B95006A96006997F9
:1025500000689800679900669A00659B00649C007B
:10256000639D00629E00619F0060A0005FA1005E0D
:10257000A2005DA3005CA4005BA5005AA60059A7B9
:102580000058A80057A90056AA0055AB0054AC004B
:1025900053AD0052AE0051AF0050B0004FB1004EED
:1025A000B2004DB3004CB4004BB5004AB60049B779
:1025B0000048B80047B90046BA0045BB0044BC001B
:1025C00043BD0042BE0041BF0040C0003FC1003ECD
:1025D000C2003DC3003CC4003BC5003AC60039C739
:1025E0000038C80037C90036CA0035CB0034CC00EB
:1025F00033CD0032CE0031CF0030D0002FD1002EAD
:10260000D2002DD3002CD4002BD5002AD60029D7F8
:102610000028D80027D90026DA0025DB0024DC00BA
:1026200023DD0022DE0021DF0020E0001FE1001E8C
:10263000E2001DE3001CE4001BE5001AE60019E7B8
:102640000018E80017E90016EA0015EB0014EC008A
:1026500013ED0012EE0011EF0010F0000FF1000E6C
:10266000F2000DF3000CF4000BF5000AF60009F778
:102670000008F80007F90006FA0005FB0004FC005A
:1026800003FD0002FE0001FF0000544D52315F497E
:10269000525148616E646C6572000000001BB70007
:1026A000000000000000000000805101001BB70086
:1026B000000000000000000000805101001BB70076
:1026C0000000000000000000008051010000000038
:1026D0002000000000000000040000000C000000CA
:1026E0002400000000000000040000002C00000096
:1026F0000000000000000000040000002C000000AA
:1027000000000000001BB700008000000000000077
:102710000000000000000000102700000000000082
:102720000080510144270000000000204400000008
:10273000E20F000088270000440000203C04000055
:10274000F20F000080F0FA023200000080F0FA027E
:10275000001BB7000080000080F0FA021027000084
:102760000000000000000000000000000080510197
:102770003101FF0000000000010000000000000027
:08278000000000000000000051
:04000005000000F106
:00000001FF
